:1000000028210020111400000D1400000D14000020
:1000100000000000000000000000000000000000E0
:100020000000000000000000000000000D140000AF
:1000300000000000000000000D1400000D1400007E
:100040000D1400000D1400000D1400000D1400002C
:100050000D1400000D1400000D1400000D1400001C
:100060000D140000210D0000310D0000410D0000B5
:10007000510D0000610D0000710D00000D14000015
:100080000D1400000D1400000D1400000D140000EC
:100090000D1400000D1400000D1400000D140000DC
:1000A0000D1400000D1400000D1400000D140000CC
:1000B00010B5064C2378002B07D1054B002B02D03E
:1000C000044800E000BF0123237010BD6800002039
:1000D00000000000182A000008B5084B002B03D0D0
:1000E0000748084900E000BF07480368002B00D11B
:1000F00008BD064B002BFBD09847F9E70000000035
:10010000182A00006C000020182A000000000000DF
:1001100010B54908402481420CD30023091A013349
:100120009BB28842FAD9013B9BB24024FF2B01D8F5
:1001300013800024201C10BDF0B55F4656464D4686
:100140004446F0B489B01C1C12AB1B78061C5E43FD
:1001500040258E4200D9C7E0251C07920C1C021CCA
:10016000002D51D1181C00210023634DA847834660
:10017000261C00270023002402930394002200235E
:100180003F2020218C461F3900960197202464428D
:10019000041903D40D1CA540A84604E06446241AA3
:1001A0000D1CE540A8460C1C8440A146141C1D1CD7
:1001B000A4185D41221C2B1C5E4647463E4203D0DC
:1001C0000E1C2643321C2B1C019C9C4210D802D1D1
:1001D000009C94420CD8009C019D121BAB414D46E3
:1001E000029E039F35433C1C4646344302950394CC
:1001F0000138CBD20022012302980399121A8B41B5
:10020000110C1B0419436CE00021012D69D1610F11
:100210000F1CE1008846181C00210023364CA04723
:10022000041C0D1C00239C4620339B46012663467C
:100230000593B9466B461B7D069300239C46002020
:1002400000213F220094019520235B42D31803D460
:10025000341C9C40231C04E05B469B1A341CDC408D
:10026000231C371C9740041C0D1C24184D41201CD6
:10027000291C0290039144463C40A2464C46234030
:100280005446234305D0029B039C1D1C3543281C68
:10029000211C019B8B420AD802D1009B834206D8C5
:1002A000009B019CC01AA14163463B439C46013A16
:1002B000CAD2009C019D62460599531ADB080F4A79
:1002C000934208D9069A0132D2B206920A1C013230
:1002D0000592082AAED14025069A082A04D0510377
:1002E0001943079B19800025281C09B03CBC904687
:1002F0009946A246AB46F0BD45180000FF1F00001E
:1003000010B582B0041C0E4B1B78002B01D00029C5
:100310000DD001A90C7013200A4B984713200A4BEB
:100320009847074B5C7001221A70002006E0044BCE
:100330005B78834201D01D2000E0002002B010BD98
:1003400084000020B512000029120000444B98429E
:1003500033D006D8434B98420DD0434B98421BD024
:100360006FE0424B98424AD0414B984258D0414BA3
:10037000984266D132E0012906D0002963D00229D3
:1003800006D0032906D001E03B4867E0002065E085
:100390003A4863E03A4861E0012906D0002954D088
:1003A000022906D0032906D001E0364856E0002095
:1003B00054E0354852E0354850E0012906D0002984
:1003C00045D0022906D0032906D001E0304845E097
:1003D000002043E02F4841E02F483FE0012906D0AC
:1003E000002936D0022906D0032906D001E02B4887
:1003F00034E0002032E02A4830E02A482EE001298B
:1004000006D0002927D0022906D0032906D001E012
:10041000254823E0002021E024481FE024481DE077
:10042000012906D0002918D0022906D0032906D0B8
:1004300001E0204812E0002010E01F480EE01F48B5
:100440000CE000200AE01E4808E0032006E01D48FA
:1004500004E01D4802E01D4800E01D487047C0460A
:100460000010004200080042000C00420018004248
:10047000001C0042001400420300050003000600B7
:10048000030007000300010003001E0003001F001B
:100490000300090003000A0003000B000300110021
:1004A000030012000300130003000D0003000E0000
:1004B00003000F00030017000300180003001900D9
:1004C00003000400030008000300100003000C00F8
:1004D0000300160030B587B00C4B6A4632CB32C2EF
:1004E00032CB32C2009B834206D001239A00694678
:1004F0005258824203D100E00023D8B203E0013316
:10050000062BF3D1002007B030BDC046DC28000028
:10051000F0B5474680B40C1C9046002810D1002A44
:100520000ADD8F18094E0A4D3068211C2B68984748
:100530000134BC42F8D101E000239846404601E076
:100540000120404204BC9046F0BDC046D4000020CB
:10055000CC000020F0B5474680B40138022815D8F9
:10056000002A10D0151C0E1C00240C4B98460C4F72
:1005700043461868315D3B689847002809DB013421
:10058000A542F5D100E00024201C04E001204042F7
:1005900001E00120404204BC9046F0BDD4000020A0
:1005A000D0000020F0B55F4656464D464446F0B4B4
:1005B00085B0031C0C1C101C00211A1C0023264DA6
:1005C000A8478346261C0027002399460393002250
:1005D00000233F21202082461F3884460096019741
:1005E0000C1C20214942651803D46146A9400D1C0A
:1005F00004E051460D1B6146E9400D1C6146A140D7
:100600008846101C191C80185941021C0B1C5E46A0
:100610002E4203D066460643321C0B1C01999942B8
:100620000ED802D1009991420AD800980199121A65
:100630008B4149464046014303982843894603902D
:10064000013CCED24B465842000C05B03CBC904613
:100650009946A246AB46F0BD4518000000B583B0F0
:10066000074A116A10230B43136201A901230B707F
:100670001620044B98471620034B984703B000BD43
:1006800000040040B51200002912000010B50E4B06
:1006900048201A5C01210A431A543422985C0F2422
:1006A000A04398549C5C03202043985449201C5C30
:1006B00021431954985C0F2101409954985C3021D2
:1006C0000143995410BDC0460044004108B51620AE
:1006D0000F4B9847011C9620800110220D4B984724
:1006E0000D4B0E4A1A609881C02292025A60191C62
:1006F0000122CB699B081A42FBD1074A11680223E9
:100700000B431360111C0222CB691A42FCD108BDB5
:10071000D1120000A5050000001000428400104026
:10072000044901220B7E9B081A42FBD0014B188D15
:10073000C0B2704700100042F0B55F4656464D46C5
:100740004446F0B491B0051C0C1C161C2960081C12
:10075000B94B984722680523D20700D563E1226888
:100760001733920700D55EE1B4490A6A871C1B3B28
:10077000BB4013430B620FA92D27F35D0B701430A0
:10078000C3B20293181CAE4B98470298AD4B9847E2
:10079000F05D0021AC4B9847F37A6B712423F35C36
:1007A000AB712523F35CEB71F37E2B72337F6B729D
:1007B0002B689A46181CA04B9847143000220E2331
:1007C00006A98C4663441A80338A99468023DB014C
:1007D000994519D004D880239B0199450AD003E19B
:1007E000C023DB0199450AD080231B02994500D123
:1007F000FFE0F9E0102398460F3B0793FDE0082344
:100800009846073B0793F8E033689B46F3680293EA
:1008100073690393337E04932623F35C0593726814
:100820000692002A15D080235B059A4236D12723F1
:10083000F35C002B36D1336A9846C0B2834B98479D
:10084000011C40460E2206AB9C466244804B9847F2
:1008500025E008239846002307932723F35C002B09
:100860000BD043460093306AB16A0E2206AB9C4619
:100870006244079B774FB84711E0336A1F1CC0B230
:10088000724B9847011C43460093381C0E2206AB5E
:100890009C466244079B6F4FB84700E00020031E50
:1008A00000D0C0E0737E002B02D0B37E524693731B
:1008B0002A68069FD369002BFCD10E3306AA944602
:1008C00063441B8852469381029B5A461343039A02
:1008D00013433B434A461343049A12021343059AB7
:1008E00057071F432723F35C002B01D104331F4319
:1008F000337F5902727E93020B43727F12021343BD
:100900002422B25C520413432522B25C1204134326
:10091000F17A19433389FF2B04D080225204174304
:10092000194305E0F37E002B02D08023DB041F4334
:100930002C23F35C002B03D1474B9B789B0701D5FD
:1009400080231F432A68D369002BFCD1534659608A
:100950002A68D369002BFCD153461F600EAB80225E
:100960001A7000225A70DA709A70336B0A93736BA4
:100970000B93B36B0C93F36B02930D9300270EAEA6
:10098000F9B2BB000AAA9858002802D1201C334BA8
:100990009847431C05D03070000CC0B2311C304B5E
:1009A00098470137042FEBD10023EB602B616B617B
:1009B000AB61EB612B62AB626B620022EB85AB85B6
:1009C0003033EA540133EA540133EA540133EA5430
:1009D0002868194B9847041C2249234B9847A400C8
:1009E000224BE55000231EE0102398460023079376
:1009F00003E0032398460023079333689B46F3687C
:100A0000029373690393337E04932623F35C059367
:100A100072680692002A00D11FE780235B059A4284
:100A200000D104E73EE7181C11B03CBC9046994643
:100A3000A246AB46F0BDC046D5040000000400400D
:100A4000B51200002912000001030000D1120000BD
:100A50001101000039010000002000414D03000099
:100A6000AD130000150B0000B90C0000D8000020E9
:100A700010B50368C4791C22002C0DD0C08D80B243
:100A8000173A002808D1DA69002AFCD11985022119
:100A90001A7E0A42FCD00022101C10BD10B504685A
:100AA00082791C23002A33D0828D92B2173B002A10
:100AB0002ED1227E52072BD5E369002BFCD1638B0C
:100AC000DBB29A0621D09A0703D502236383183339
:100AD0001EE05A0703D5042363831A3318E0DA07AC
:100AE00003D501236383123312E0DA0605D5628B46
:100AF00010231343638342230AE09B0605D5628BD0
:100B0000202313436383412302E0238D0B800023C2
:100B1000181C10BDF8B58000654BC5582C68E369FA
:100B2000002BFCD1237EA67D1E403123EB5C3022BE
:100B3000AF5C1F40F30722D5EB8D9BB2002B1CD07E
:100B4000AA6A1378DBB2511CA9626979012901D024
:100B50009BB204E0517809020B430232AA62DB0522
:100B6000DB0D2385EB8D013B9BB2EB85002B06D182
:100B7000013323750133A37501E001232375B30706
:100B800009D50223237500223133EA54FB0702D52D
:100B9000281CEB68984773076AD5AB8D9BB2002B76
:100BA00064D0638BDBB21A0702D43F22134001E00A
:100BB00037221340002B37D09A0707D51A22322349
:100BC000EA54628B303B1343638327E05A0707D50F
:100BD0001E223223EA54628B2E3B134363831DE0B3
:100BE000DA0707D513223223EA54628B313B1343D1
:100BF000638313E0DA0607D542223223EA54628B7C
:100C0000223B1343638309E020221A4206D021329B
:100C10003223EA54628B123B134363837B0727D54D
:100C2000281C6B69984723E0238DDB05DB0DDAB2C6
:100C3000696A0A706A6A511C69626979012904D17A
:100C40001B0A53706B6A01336B62AB8D013B9BB225
:100C5000AB85002B0CD10433237500222E33EA54CC
:100C6000BB0705D5281C2B69984701E00423237591
:100C7000F30607D5102323752376FB0602D5281C1F
:100C8000EB699847B30607D52023237523763B07E6
:100C900002D5281CAB699847330707D5082323756D
:100CA0002376BB0602D52B6A281C9847F8BDC046A0
:100CB000D80000207047C046F0B50A4B1B78002BC7
:100CC0000CD1094F094E0A4D0024DE515A19146007
:100CD0000433182BF9D10122024B1A708000024B09
:100CE000C150F0BD8600002088000020B50C000037
:100CF000D800002010B582B0041C684605490622C1
:100D0000054B9847201C054B98476B46185602B078
:100D100010BDC046F4280000E5180000D50400000E
:100D200008B5024B1B680020984708BD88000020CA
:100D300008B5024B5B680120984708BD8800002079
:100D400008B5024B9B680220984708BD8800002028
:100D500008B5024BDB680320984708BD88000020D7
:100D600008B5024B1B690420984708BD8800002085
:100D700008B5024B5B690520984708BD8800002034
:100D80000C4B1B68002B10D1EFF31083002B09D103
:100D900072B6BFF35F8F0022074B1A700132074B08
:100DA0001A7002E00022054B1A70024A13680133E0
:100DB00013607047A000002000000020A400002065
:100DC000084B1A68013A1A601B68002B09D1064BC0
:100DD0001B78002B05D00122044B1A70BFF35F8FE4
:100DE00062B67047A0000020A40000200000002090
:100DF000F0B583B001AC012565700027A7702570A0
:100E00003E20211C064EB0478022D205054B9A6138
:100E1000277065700F20211CB04703B0F0BDC0469D
:100E2000290E00008044004100B583B001AB802250
:100E30001A700A785A704A789A708A78DA70191C8F
:100E4000014B984703B000BDAD13000008B508285A
:100E500003D880001B4B1B589F46002031E01A4BE3
:100E600018692EE0194B186A8005800F184BC34093
:100E7000181C26E0144B586923E0134B1B68022012
:100E800018401ED011491022CB681A42FCD00E4BDC
:100E90001B685B0714D500200E4B98470A4B9B68D4
:100EA0001B041B0C58430CE05023084AD35C002061
:100EB0005B0706D5044BD86803E08020000200E001
:100EC000054808BDFC280000A800002000080040DC
:100ED00000127A00D1120000006CDC0270B50C4CDC
:100EE000236A0178857842780120024092014026E9
:100EF000B3431343021C2A40D2017F308343134380
:100F000003220A40120203490B401343236270BDBF
:100F100000080040FFFCFFFF082803D88000254B95
:100F20001B589F46172044E0234A116A02230B43B3
:100F3000136200203DE0204A916902230B43936134
:100F4000002036E01C4A118A02230B431382002042
:100F50002FE0194A918A02230B439382002028E054
:100F600016490B68022213430B60134B9A84191C19
:100F70000E32CB681A42FCD0104A91680E4BD962EF
:100F800052689A6200229A84191C1032CB681A4265
:100F9000FCD00A4B1B689BB2074A9384002008E0F0
:100FA00005494422885C022303438B54002000E05F
:100FB000002070472029000000080040A800002001
:100FC000F0B5474680B484B0C222D200224B9A606A
:100FD000224A53681E218B43536002236A461370D2
:100FE00000241F4DE0B26946A8470134252CF9D1F1
:100FF00003A800244470012585700470194B98479C
:101000000620194B9847194B984701956B465C7021
:10101000062398466B4642461A701C725C72012089
:101020006946134FB8470120124EB047124B1C724D
:101030005C729C72DC7201956B465C7042461A7061
:101040001C725C7200206946B8470020B04704B0AB
:1010500004BC9046F0BDC04600080040004000417E
:10106000B5120000DD0E0000190F00007D10000019
:10107000A11000005911000000040040064A9169C7
:1010800008230B4393610122044B1A70191C0B783F
:101090001342FCD17047C04600040040000C0040E1
:1010A00070B5061C041C0D782D0205434B78002BEF
:1010B00002D08023DB021D434B7A002B02D0802319
:1010C0001B031D434868012818D9431E184210D13C
:1010D000022806D90223002201325B009842FBD885
:1010E00000E0002212023243141C80235B031D43E4
:1010F00004E00402344380239B021D430B7A002B3F
:1011000002D080239B031D430F4A53785BB2002B10
:10111000FBDB0E4B98470E4B1E700B4A53785BB2AD
:10112000002BFBDB084B9C601A1C53785BB2002B36
:10113000FBDB054A516880235B020B401D43556071
:10114000044B984770BDC046000C0040810D000064
:10115000080C0040C10D000010B5041C0B4A537868
:101160005BB2002BFBDB0A4B98470A4B1C70074A0B
:1011700053785BB2002BFBDB044A536880214902A1
:101180000B435360044B984710BDC046000C004011
:10119000810D0000040C0040C10D000070B5041C5E
:1011A0001A4A53785BB2002BFBDB194B9847194B5B
:1011B0001C70164A53785BB2002BFBDB134E706831
:1011C000C004C00E144B9847051C124B1C70766867
:1011D000F602F60F114B1C700C4A53785BB2002BD1
:1011E000FBDB0A4B9C68240AA4B20D4B9847002EE7
:1011F00007D1012C07D9281C211C0A4B9847051C34
:1012000001E00134E540281C70BDC046000C0040E0
:10121000810D0000040C00404D0E0000080C004041
:10122000C10D00002117000010B5041C064B9847A3
:10123000064B1C70064A51888023DB010B43538008
:10124000044B984710BDC046810D0000020C0040C1
:10125000000C0040C10D000010B5041C0F4B984756
:101260000F4B1C700F4B5A881205100F59880E4AED
:101270000A405A8059880D4A0A405A80191C802217
:10128000D2014B881342FCD1064902024888064B22
:10129000034013434B80064B984710BD810D00005F
:1012A000020C0040000C0040FFF0FFFFFFBFFFFFFB
:1012B000C10D000010B50C7824020443024B98477E
:1012C000A4B2024B5C8010BD59120000000C00401B
:1012D00010B5041C064B9847064B1C70064B5C88E7
:1012E0002405240F054B9847201C054B984710BD3B
:1012F000810D0000020C0040000C0040C10D0000F8
:101300009D11000030B5D378002B1ED11478802CAD
:1013100004D0240680235B021C4300E000245378A1
:101320000225AB430AD19378002B03D180239B0283
:101330001C4302E0C023DB021C4341605378013BA5
:10134000012B12D8184B1C400FE041600B041B0C02
:10135000A024E405234383620B0CD02424062343FA
:101360008362D378002B18D01CE00B041B0CA02543
:10137000ED052B43234383620B0CD0252D062B4315
:1013800023438362D378002B0CD1630305D5937874
:10139000012B01D1816100E041615378013B012BB8
:1013A00000D8816030BDC046FFFFFBFF08B5031CBD
:1013B0000A1CC1090020002904D15809C0010549AF
:1013C0008C4660441F210B401E399940024B9847C0
:1013D00008BDC04600440041051300007047C046E8
:1013E00008B5054B9847054B9847054B9847054B63
:1013F0009847054B984708BDC10F0000F10D00004C
:10140000DD130000DD130000DD130000FEE7C04621
:1014100070B52E4B2E4A9A4203D02E4B2B4A9A423D
:1014200004D32D4B2D4A9A4210D31EE02C4A294B4F
:1014300003339B1A9B0801339B0000222348244955
:101440008C58845004329A42FAD1EAE7254A224B5A
:1014500003339B1A9B0801339B0000221F48002185
:101460001418216004329A42FAD11F4AFF211F4BFF
:101470008B439360FD3990235B001D4AD1501D487A
:10148000C3780324A34302221343C370C3780C26FA
:10149000B34308210B43C370174B987B3025A843F7
:1014A000051C202028439873987BB043014399730F
:1014B000997BA1430A439A73104A516880230B43D6
:1014C00053600F4B98470F4B9847FEE700000020F2
:1014D000182A000068000020280100206800002071
:1014E000040000206C00002000ED00E0000000007F
:1014F00000700041005000410048004100400041A0
:101500009918000081160000031C064A1268002A80
:1015100002D10549034A1160024A1068C3181360DA
:101520007047C046C0000020282100200120404212
:101530007047C04680239B014B6000207047C04627
:10154000012070470020704770B582B0051C0E1C4A
:1015500000226B46DA80064C281C6B46991DA0477A
:101560000028F9D16B4606331B88337002B070BD7A
:101570009D0A000070B5051C8CB2034E281C211C6E
:10158000B0470028FAD170BD710A0000F0B591B0E3
:101590008023DB05009300230193FF2269460A8123
:1015A00000228B72CB72962189010891012424219B
:1015B0006846445401314454013143540131435489
:1015C0000A930531435405930382C376027602776A
:1015D00042761323837642772D23C45480235B0302
:1015E0000393194B0C93194B0D9301235B420E93FC
:1015F0000F93174D174B1D60174A184B1A60184A66
:10160000184B1A60281C18496A46184B9847184FFF
:101610003B6898680021174EB0473B685868002126
:10162000B0472E68301C144B98471F231840844045
:10163000124B1C602A68D369002BFCD1326802333C
:101640001343336011B0F0BD020016000200170012
:10165000F0000020D400002075150000D00000200C
:1016600049150000CC00002000140042390700009A
:101670006400002065190000F50C000000E100E0A6
:10168000F0B583B000236A46137053709370D37023
:1016900013715371184B9847184B9847184B98473C
:1016A000184B9847184B98471848194B9847194EAC
:1016B000174DB04700281CD000220127C10F431846
:1016C0003B405B1A69468B54C30F18184010013217
:1016D000D2B20028F2D10CE06B46F95C0E48A84764
:1016E0006B46FC540137062FF6D10A200B4B984766
:1016F000DFE700270024EFE7E11300005D060000AC
:101700008D060000CD0600008D1500004429000064
:101710000919000021070000582900003D190000A8
:10172000002243088B4274D303098B425FD3030A20
:101730008B4244D3030B8B4228D3030C8B420DD333
:10174000FF22090212BA030C8B4202D312120902C1
:1017500065D0030B8B4219D300E0090AC30B8B42FF
:1017600001D3CB03C01A5241830B8B4201D38B03AD
:10177000C01A5241430B8B4201D34B03C01A524152
:10178000030B8B4201D30B03C01A5241C30A8B4295
:1017900001D3CB02C01A5241830A8B4201D38B0280
:1017A000C01A5241430A8B4201D34B02C01A524124
:1017B000030A8B4201D30B02C01A5241CDD2C30996
:1017C0008B4201D3CB01C01A524183098B4201D312
:1017D0008B01C01A524143098B4201D34B01C01AFD
:1017E000524103098B4201D30B01C01A5241C30875
:1017F0008B4201D3CB00C01A524183088B4201D3E4
:101800008B00C01A524143088B4201D34B00C01ACF
:101810005241411A00D20146524110467047FFE73B
:1018200001B5002000F00CF802BDC0460029F7D039
:1018300003B5FFF775FF0EBC4243891A1847C0462F
:101840007047C046F0B54F46464605042D0C2C1C8B
:10185000C0B41704160C3F0C9946030C7C43754327
:101860005F4373437D19260CAD199C46AF4203D9E3
:1018700080235B029846C4444B46514343432404AF
:101880002E0C240C2D0466442C1959188919201C7F
:101890000CBC90469946F0BD0E4B70B500251E1C41
:1018A0000D4CE41AA410A54204D0AB00F35898479D
:1018B0000135F8E701F0A0F8084B00251E1C084C84
:1018C000E41AA410A54204D0AB00F35898470135A0
:1018D000F8E770BD042A0000042A0000042A000072
:1018E000082A0000002310B5934203D0CC5CC454F6
:1018F0000133F9E710BD031C8218934202D019701E
:101900000133FAE7704700000FB40B4B13B51C68A6
:10191000002C05D0A369002B02D1201C00F0AAF9ED
:1019200005AB201CA168049A019300F005FB16BCCE
:1019300008BC04B01847C0466400002038B5084B06
:10194000051C1C68002C05D0A369002B02D1201CAB
:1019500000F090F9291C201CA26800F083FD38BD1E
:101960006400002008B54A424A4180235200DB004F
:1019700000F002F808BD0000F7B51E1C3C4B041C2B
:101980001D680F1C0192002D05D0AB69002B02D100
:10199000281C00F06FF9374B9C4201D16C6808E0BD
:1019A000354B9C4201D1AC6803E0344B9C4200D1E2
:1019B000EC68019B022B58D8002E56DB281C211CFA
:1019C00000F0EAF800236360A361A3891B0603D536
:1019D000281C216900F0EAF98322A3899343A3819B
:1019E000019B022B13D0002F25D1002E01D1802680
:1019F000F600301C00F0D0F9071E18D18020C0007E
:101A000000F0CAF9071E10D10120404200E000207A
:101A10000222A3891343A3810023A360231C47331D
:101A2000236023610123636121E08026F600802288
:101A3000A3891343A381019B012B05D1A389019A9B
:101A40001A437342A281A3610D4B0020AB62A289AD
:101A5000276027616661130709D503231A405342A3
:101A600053415B421E40A66001E001204042FEBDA2
:101A7000640000206429000084290000A4290000DB
:101A8000F11B0000F7B58A89051C0C1C13075ED4F6
:101A90004B68002B02DC0B6C002B1ADDE76A002F71
:101AA00017D000232E682B6080235B011A4001D0E1
:101AB000626D15E0281C216A0123B847021C431CF3
:101AC0000ED12B68002B0BD01D2B01D0162B02D171
:101AD0002E6000205EE04021A3890B43A38159E0E2
:101AE000A3895B0706D56368D21A636B002B01D00C
:101AF000236CD21A0023281C216AE76AB847A389FD
:101B0000421C06D12A68002A03D01D2A01D0162AB9
:101B100019D10022626022692260DB0405D5431CD2
:101B200002D12B68002B00D16065616B2E6000290B
:101B3000CFD0231C4433994202D0281C00F036F940
:101B40000020606326E040221343A38122E00F6956
:101B5000002FBED00B680F60DB1B019300239207A0
:101B600000D14B69A360019B002BB2DD281C216AC8
:101B70003A1C019BA66AB047002806DC40220120DF
:101B8000A38940421343A38104E0019B3F181B1A21
:101B90000193E8E7FEBD000038B50B69051C0C1C7D
:101BA000002B01D100201CE0002804D08369002B09
:101BB00001D100F05FF80B4B9C4201D16C6808E04A
:101BC000094B9C4201D1AC6803E0084B9C4200D118
:101BD000EC680C22A35E002BE4D0281C211CFFF72C
:101BE00051FF38BD6429000084290000A4290000A9
:101BF00008B5024900F0AEF808BDC046991B0000C8
:101C0000002310B5041C0360436083608181436638
:101C1000C281036143618361191C08225C30FFF7B4
:101C20006AFE054B24626362044BA362044BE362C9
:101C3000044B236310BDC046012500002925000088
:101C4000612500008D25000070B568254B1E5D43A1
:101C50000E1C291C743100F0EFF8041E08D000217E
:101C60002A1C016046600C30A0606832FFF743FE1A
:101C7000201C70BD836913B5002B28D18364C36415
:101C80000365134B134A1B6882620193984201D18A
:101C900001238361041C00F01FF86060201C00F029
:101CA0001BF8A060201C00F017F80421E06000225F
:101CB0006068FFF7A5FFA06809210122FFF7A0FFD8
:101CC000E06812210222FFF79BFF0123A36113BDED
:101CD00060290000F11B0000F8B51D4B061C1D68B3
:101CE000AB69002B02D1281CFFF7C4FF4835AC6854
:101CF0006B68013B05D40C22A75E002F10D068341E
:101D0000F7E72B68002B06D1301C0421FFF79CFF5E
:101D10002860002801D02D68E9E70C23336016E025
:101D20000123201C5B42E3810233A38167662760A5
:101D3000A760676027616761A7615C30391C082272
:101D4000FFF7D9FD201C6763A763A764E764F8BDAC
:101D500060290000F7B5041C071C002601914834D7
:101D6000002C16D06368A5680093009B013B00938C
:101D70000DD4AB89012B08D90E22AB5E013304D000
:101D8000381C291C019B984706436835EDE72468F9
:101D9000E6E7301CFEBD000008B5034B011C1868C7
:101DA00000F04AF808BDC0466400002030B50029A4
:101DB0003ED004390B68002B00DAC9181D4A13689D
:101DC000141C002B02D14B60116031E099420DD2FE
:101DD00008680A189A4203D11368C3180B60536845
:101DE0004B60216024E08A4203D8131C5A68002A01
:101DF000F9D11D685C198C420BD109686918581813
:101E00001960904214D110685268091819605A601C
:101E10000EE08C4202D90C23036009E008680C181C
:101E2000944203D114685268001908604A605960EE
:101E300030BDC046C8000020032370B5CC1C9C43B5
:101E40000834051C0C2C01D20C2405E0002C03DA0C
:101E50000C2300202B6042E08C42F9D3204A136807
:101E6000101C191C002913D00A68121B0DD40B2A50
:101E700002D90A608B181FE08B4202D15A680260B7
:101E80001BE04A685A600B1C17E00B1C4968E9E725
:101E9000144E3368002B03D1281C00F01FFB306068
:101EA000281C211C00F01AFB031C421CD0D003226A
:101EB000C61C964386420AD11C60181C07210B30B1
:101EC0001A1D8843821A0AD05142995007E0311AEC
:101ED000281C00F003FB431CBAD0331CECE770BD98
:101EE000C8000020C4000020936810B5013B936037
:101EF000002B05DA9469A34208DBCBB20A2B05D08C
:101F00001368581C10601970C8B201E000F044FB5F
:101F100010BDF8B5061C0F1C141CD518AC4208D017
:101F20002178301C3A1CFFF7DFFF0134431CF5D148
:101F300000E00020F8BD0000F0B59FB0061C0F1CAB
:101F400002920593002804D08369002B01D1FFF78A
:101F500091FE794B9F4201D1776808E0774B9F4211
:101F600001D1B76803E0764B9F4200D1F768BB8987
:101F70001B070AD53B69002B07D0002306AD6B6118
:101F800020336B761033AB763DE0301C391C00F00B
:101F90006FFB0028F1D001204042CAE0059A111DD4
:101FA00012680591002A7EDB0992013423782E2BDA
:101FB00000D189E021786348032200F04BFC00281F
:101FC00008D0604B0134C01A40238340181C2B6892
:101FD000184328602178631C5B4806220293297607
:101FE00000F038FC002800D191E0584B002B00D0C5
:101FF00084E00722059B07339343083305936B69FD
:10200000039A9B186B61029C2378002B04D1029BDE
:10201000E31A049311D003E0252BF8D00134F3E741
:10202000049B301C391C029AFFF773FF431C7BD0C2
:102030006A69049B944663446B612378002B73D0D8
:102040000122002352426A6002A95432521801341C
:102050002B60EB60AB601370AB6521783C480522C8
:1020600000F0F8FB002809D0394B0134C01A0123D5
:102070008340181C2B6818432860EEE72B68DA06AB
:1020800004D55322202102A8121811701A0704D572
:1020900053222B2102A81218117022782A2A00D16B
:1020A0007CE7099B05E05242EA60022213432B6061
:1020B0007BE72278303A092A04D80A214B430134BD
:1020C0009B18F6E7099371E763782A2B09D1059BE2
:1020D00002341A1D1B680592002B0DDA01235B42A6
:1020E0000AE0002301342278303A092A04D80A2170
:1020F0004B4301349B18F6E707935BE705AB00936E
:10210000301C291C3A1C134B00E000BF07E005AB54
:102110000093301C291C3A1C0E4B00F08BF80390E6
:10212000039B013300D06AE7BB895B0600D532E729
:102130000B981FB0F0BDC046642900008429000040
:10214000A4290000CA290000CE29000000000000D8
:10215000C4290000131F0000F7B5171C01930A697A
:102160008B6800900C1C934200DA131C221C3B600D
:1021700043321278002A01D001333B6023689B066A
:1021800002D53B6802333B60062523681D401ED004
:10219000231C43331B785A1E9341226892061CD598
:1021A0003020E1184031C870211C5A1C4531097893
:1021B000A21840320233D1700FE0221C0123009894
:1021C00001991932089EB047431C0ED00135E368CF
:1021D0003A689B1A9D42F0DBDAE7221C00980199CD
:1021E0004332089DA847431C02D10120404220E011
:1021F00006232068E1683A6803400025042B03D1D8
:102200008D1AEB43DB171D40A3682269934201DD61
:102210009B1AED180027AF420ADA221C012300980E
:1022200001991A32089EB047431CDED00137F2E70D
:102230000020FEBDF0B58BB006920A1C4332079316
:10224000059004920A7E0C1C109B6E2A00D1A8E017
:1022500011D8632A22D009D8002A00D1B2E0582A26
:1022600000D0C2E045310A707C4A4FE0642A1DD09C
:10227000692A1BD0B9E0732A00D1A7E009D86F2AD8
:1022800029D0702A00D0B0E0202209680A432260D9
:1022900037E0752A1FD0782A33D0A6E00E1C1A68C2
:1022A0004236111D196013683370A1E021681A6865
:1022B000080606D4490604D5111D19600023D55E11
:1022C00002E0111D19601568002D3BDA2D23049AD8
:1022D0006D42137036E021681A68080606D4490674
:1022E00004D51568111D1960ADB202E0111D196009
:1022F00015685A4B227E03930A276F2A1DD108279F
:102300001BE0221C782145321170554A196803924E
:10231000081D226818600D68100602D4500600D50A
:10232000ADB2D30702D520231A4322601027002D17
:1023300003D1202322689A432260231C00224333C6
:102340001A7002E00A27454B03936368A360002BD1
:1023500003DB0422216891432160002D02D1049EF9
:10236000002B0ED0049E281C391CFFF75FFA039B3C
:10237000013E5B5C281C3370391CFFF7D1F9051E48
:10238000F1D1082F09D12368DB0706D563682269DC
:10239000934202DC3023013E3370049B9B1B23617C
:1023A0002BE009681A68080607D4490605D5111DEF
:1023B00019601368A28A1A8004E0111D196013685D
:1023C00062691A600023049E236116E01A68111DD9
:1023D000196016680021301C626800F03BFA002882
:1023E00001D0801B6060636803E0261C42363270B7
:1023F000012323610023049A1370079B059800931F
:10240000211C069B09AAFFF7A7FE431C02D101204D
:10241000404221E0236905980699321C079DA84790
:10242000431CF4D023689B0705D4099BE0689842BD
:1024300012DA181C10E00025E368099A9B1A9D42E5
:10244000F3DA221C0123059806991932079EB0473A
:10245000431CDCD00135EFE70BB0F0BDD5290000FF
:10246000E629000070B5051C0E1C141C002804D0C1
:102470008369002B01D1FFF7FDFB154B9C4201D175
:102480006C6808E0134B9C4201D1AC6803E0124B2E
:102490009C4200D1EC68A368013BA360002B10DADA
:1024A000A269934207DB23681E70236819780A2902
:1024B0000AD1281C01E0281C311C221C00F06CF8F9
:1024C00005E023681E7023685A1C2260187870BDCE
:1024D0006429000084290000A429000038B50023E5
:1024E000064C051C081C2360FFF70EF8431C03D1A3
:1024F0002368002B00D02B6038BDC046240100208B
:1025000038B50C1C0E25495F00F0B0F9002803DB3C
:10251000636D1B18636503E0A289024B1340A3811E
:1025200038BDC046FFEFFFFFF8B51E1C8B89051CA8
:102530000C1C171CDB0505D50E23C95E00220223E7
:1025400000F01CF9A289054B281C1340A3813A1CFA
:102550000E23E15E331C00F077F8F8BDFFEFFFFFBC
:1025600038B50C1C0E25495F00F008F9A389421C00
:1025700003D1054A1340A38104E080225201134392
:10258000A381606538BDC046FFEFFFFF08B50E238D
:10259000C95E00F0E1F808BD70B5051C0E1C141CE6
:1025A000002804D08369002B01D1FFF763FB234B84
:1025B0009C4201D16C6808E0214B9C4201D1AC687F
:1025C00003E0204B9C4200D1EC68A369A360A3897F
:1025D0001B070AD52369002B07D023682269F6B2AE
:1025E000981A636998420FDB08E0281C211C00F050
:1025F0003FF80028F1D0012040421DE0281C211C9A
:10260000FFF7CAFA0028F6D1A3680130013BA360A6
:1026100023685A1C22601E706369984205D0A38902
:10262000301CDB0708D50A2E06D1281C211CFFF719
:10263000B3FA0028DFD1301C70BDC0466429000009
:1026400084290000A429000038B5051C0020074C8F
:102650002060081C111C1A1CFDF77CFF431C03D1D1
:102660002368002B00D02B6038BDC0462401002019
:10267000354B70B51D68061C0C1C002D05D0AB69D0
:10268000002B02D1281CFFF7F5FA304B9C4201D1F8
:102690006C6808E02E4B9C4201D1AC6803E02D4BE6
:1026A0009C4200D1EC68A3899AB2110723D4D106C9
:1026B00007D409220120326037321343A3814042FC
:1026C00040E0530713D5616B002908D0231C443325
:1026D000994202D0301CFFF769FB00236363242278
:1026E000A3899343A38100236360236923600822A5
:1026F000A3891343A3812369002B0BD1A023A289B3
:102700009B00134080229200934203D0301C211C76
:1027100000F048F80123A289134005D00023A360EC
:1027200063695B42A36103E0910700D46369A3601E
:1027300000202369834205D1130603D540231A43A1
:10274000A281013870BDC0466400002064290000E9
:1027500084290000A429000038B50023064C051C7C
:10276000081C2360FEF7E2FE431C03D12368002B04
:1027700000D02B6038BDC0462401002038B5051CB0
:102780000020074C2060081C111C1A1CFEF7DAFE02
:10279000431C03D12368002B00D02B6038BDC046FA
:1027A00024010020F0B58B8991B09B0706D50B1C46
:1027B00047330B600B6101234B6145E00C1C0E237A
:1027C000C95E061C002904DA8023A5891D4010D1AA
:1027D0000CE001AA00F05EF80028F5DBF023029D72
:1027E0001B021D40194BED186B425D418027FF0015
:1027F00001E000254027301C391CFFF71DFB002895
:102800000CD1A3899A051FD402221343A381231C50
:102810004733236023610123636115E080220C4B61
:10282000B362A38920601343A38120616761002DF7
:102830000AD00E23E15E301C00F03EF8002803D0E1
:102840000122A3891343A38111B0F0BD00E0FFFF73
:10285000F11B0000C9B28218904204D003788B4269
:1028600002D00130F8E700207047000038B5051CA1
:102870000020074C2060081C111C1A1CFDF748FEA4
:10288000431C03D12368002B00D02B6038BDC04609
:102890002401002038B50023064C051C081C111C1F
:1028A0002360FEF747FE431C03D12368002B00D0B2
:1028B0002B6038BD2401002038B50023064C051CD0
:1028C000081C2360FEF73CFE431C03D12368002B49
:1028D00000D02B6038BDC046240100200008004213
:1028E000000C004200100042001400420018004298
:1028F000001C0042090A0B0C0D0E00005E0E0000C9
:102900005A0E00005A0E0000BA0E0000BA0E000067
:10291000740E0000640E00007A0E0000A80E000085
:10292000440F0000240F0000240F0000B00F00002F
:10293000360F0000520F0000280F0000600F00004B
:10294000A00F0000557020616E642072756E6E6974
:102950006E67210D000000002564000043000000A8
:102960000400002000000000000000000000000043
:102970000000000000000000000000000000000057
:102980000000000000000000000000000000000047
:102990000000000000000000000000000000000037
:1029A0000000000000000000000000000000000027
:1029B0000000000000000000000000000000000017
:1029C00000000000232D302B2000686C4C00656651
:1029D0006745464700303132333435363738394170
:1029E0004243444546003031323334353637383986
:1029F0006162636465660000F8B5C046F8BC08BC57
:102A00009E467047D9000000F8B5C046F8BC08BC27
:082A10009E467047B100000072
:102A18000100000000000000642900008429000073
:102A2800A4290000000000000000000000000000D1
:102A3800000000005C290000000000000000000009
:102A4800000000000000000000000000000000007E
:102A5800000000000000000000000000000000006E
:102A6800000000000000000000000000000000005E
:082A7800000000000400002032
:0400000300001411D4
:00000001FF
